{
  "contractName": "SharedWalletContract",
  "abi": [
    {
      "inputs": [],
      "stateMutability": "nonpayable",
      "type": "constructor"
    },
    {
      "anonymous": false,
      "inputs": [
        {
          "indexed": true,
          "internalType": "address",
          "name": "owner",
          "type": "address"
        },
        {
          "indexed": true,
          "internalType": "address",
          "name": "spender",
          "type": "address"
        },
        {
          "indexed": false,
          "internalType": "uint256",
          "name": "value",
          "type": "uint256"
        }
      ],
      "name": "Approval",
      "type": "event"
    },
    {
      "anonymous": false,
      "inputs": [
        {
          "indexed": true,
          "internalType": "address",
          "name": "previousOwner",
          "type": "address"
        },
        {
          "indexed": true,
          "internalType": "address",
          "name": "newOwner",
          "type": "address"
        }
      ],
      "name": "OwnershipTransferred",
      "type": "event"
    },
    {
      "anonymous": false,
      "inputs": [
        {
          "indexed": false,
          "internalType": "address",
          "name": "account",
          "type": "address"
        }
      ],
      "name": "Paused",
      "type": "event"
    },
    {
      "anonymous": false,
      "inputs": [
        {
          "indexed": true,
          "internalType": "address",
          "name": "from",
          "type": "address"
        },
        {
          "indexed": true,
          "internalType": "address",
          "name": "to",
          "type": "address"
        },
        {
          "indexed": false,
          "internalType": "uint256",
          "name": "value",
          "type": "uint256"
        }
      ],
      "name": "Transfer",
      "type": "event"
    },
    {
      "anonymous": false,
      "inputs": [
        {
          "indexed": false,
          "internalType": "address",
          "name": "account",
          "type": "address"
        }
      ],
      "name": "Unpaused",
      "type": "event"
    },
    {
      "inputs": [
        {
          "internalType": "address",
          "name": "owner",
          "type": "address"
        },
        {
          "internalType": "address",
          "name": "spender",
          "type": "address"
        }
      ],
      "name": "allowance",
      "outputs": [
        {
          "internalType": "uint256",
          "name": "",
          "type": "uint256"
        }
      ],
      "stateMutability": "view",
      "type": "function"
    },
    {
      "inputs": [
        {
          "internalType": "address",
          "name": "spender",
          "type": "address"
        },
        {
          "internalType": "uint256",
          "name": "amount",
          "type": "uint256"
        }
      ],
      "name": "approve",
      "outputs": [
        {
          "internalType": "bool",
          "name": "",
          "type": "bool"
        }
      ],
      "stateMutability": "nonpayable",
      "type": "function"
    },
    {
      "inputs": [
        {
          "internalType": "address",
          "name": "account",
          "type": "address"
        }
      ],
      "name": "balanceOf",
      "outputs": [
        {
          "internalType": "uint256",
          "name": "",
          "type": "uint256"
        }
      ],
      "stateMutability": "view",
      "type": "function"
    },
    {
      "inputs": [
        {
          "internalType": "address",
          "name": "",
          "type": "address"
        }
      ],
      "name": "beneficiaries",
      "outputs": [
        {
          "internalType": "uint256",
          "name": "valueAllowed",
          "type": "uint256"
        },
        {
          "internalType": "bool",
          "name": "isAllowed",
          "type": "bool"
        },
        {
          "internalType": "uint256",
          "name": "lastDateWithdrawAllowance",
          "type": "uint256"
        }
      ],
      "stateMutability": "view",
      "type": "function"
    },
    {
      "inputs": [],
      "name": "decimals",
      "outputs": [
        {
          "internalType": "uint8",
          "name": "",
          "type": "uint8"
        }
      ],
      "stateMutability": "view",
      "type": "function"
    },
    {
      "inputs": [
        {
          "internalType": "address",
          "name": "spender",
          "type": "address"
        },
        {
          "internalType": "uint256",
          "name": "subtractedValue",
          "type": "uint256"
        }
      ],
      "name": "decreaseAllowance",
      "outputs": [
        {
          "internalType": "bool",
          "name": "",
          "type": "bool"
        }
      ],
      "stateMutability": "nonpayable",
      "type": "function"
    },
    {
      "inputs": [
        {
          "internalType": "address",
          "name": "spender",
          "type": "address"
        },
        {
          "internalType": "uint256",
          "name": "addedValue",
          "type": "uint256"
        }
      ],
      "name": "increaseAllowance",
      "outputs": [
        {
          "internalType": "bool",
          "name": "",
          "type": "bool"
        }
      ],
      "stateMutability": "nonpayable",
      "type": "function"
    },
    {
      "inputs": [],
      "name": "name",
      "outputs": [
        {
          "internalType": "string",
          "name": "",
          "type": "string"
        }
      ],
      "stateMutability": "view",
      "type": "function"
    },
    {
      "inputs": [],
      "name": "owner",
      "outputs": [
        {
          "internalType": "address",
          "name": "",
          "type": "address"
        }
      ],
      "stateMutability": "view",
      "type": "function"
    },
    {
      "inputs": [],
      "name": "paused",
      "outputs": [
        {
          "internalType": "bool",
          "name": "",
          "type": "bool"
        }
      ],
      "stateMutability": "view",
      "type": "function"
    },
    {
      "inputs": [],
      "name": "renounceOwnership",
      "outputs": [],
      "stateMutability": "nonpayable",
      "type": "function"
    },
    {
      "inputs": [],
      "name": "symbol",
      "outputs": [
        {
          "internalType": "string",
          "name": "",
          "type": "string"
        }
      ],
      "stateMutability": "view",
      "type": "function"
    },
    {
      "inputs": [],
      "name": "totalSupply",
      "outputs": [
        {
          "internalType": "uint256",
          "name": "",
          "type": "uint256"
        }
      ],
      "stateMutability": "view",
      "type": "function"
    },
    {
      "inputs": [
        {
          "internalType": "address",
          "name": "to",
          "type": "address"
        },
        {
          "internalType": "uint256",
          "name": "amount",
          "type": "uint256"
        }
      ],
      "name": "transfer",
      "outputs": [
        {
          "internalType": "bool",
          "name": "",
          "type": "bool"
        }
      ],
      "stateMutability": "nonpayable",
      "type": "function"
    },
    {
      "inputs": [
        {
          "internalType": "address",
          "name": "from",
          "type": "address"
        },
        {
          "internalType": "address",
          "name": "to",
          "type": "address"
        },
        {
          "internalType": "uint256",
          "name": "amount",
          "type": "uint256"
        }
      ],
      "name": "transferFrom",
      "outputs": [
        {
          "internalType": "bool",
          "name": "",
          "type": "bool"
        }
      ],
      "stateMutability": "nonpayable",
      "type": "function"
    },
    {
      "inputs": [
        {
          "internalType": "address",
          "name": "newOwner",
          "type": "address"
        }
      ],
      "name": "transferOwnership",
      "outputs": [],
      "stateMutability": "nonpayable",
      "type": "function"
    },
    {
      "inputs": [
        {
          "internalType": "address",
          "name": "_beneficiary",
          "type": "address"
        },
        {
          "internalType": "bool",
          "name": "_isAllowed",
          "type": "bool"
        },
        {
          "internalType": "uint256",
          "name": "_amountAllowed",
          "type": "uint256"
        }
      ],
      "name": "setBeneficiary",
      "outputs": [],
      "stateMutability": "nonpayable",
      "type": "function"
    },
    {
      "inputs": [
        {
          "internalType": "uint256",
          "name": "_maxTokenAllowed",
          "type": "uint256"
        }
      ],
      "name": "setMaxTokensAllowed",
      "outputs": [],
      "stateMutability": "nonpayable",
      "type": "function"
    },
    {
      "inputs": [
        {
          "internalType": "address",
          "name": "account",
          "type": "address"
        },
        {
          "internalType": "uint256",
          "name": "amount",
          "type": "uint256"
        }
      ],
      "name": "addTokens",
      "outputs": [],
      "stateMutability": "nonpayable",
      "type": "function"
    },
    {
      "inputs": [],
      "name": "pause",
      "outputs": [],
      "stateMutability": "nonpayable",
      "type": "function"
    },
    {
      "inputs": [],
      "name": "unpause",
      "outputs": [],
      "stateMutability": "nonpayable",
      "type": "function"
    },
    {
      "inputs": [],
      "name": "withdrawAllowance",
      "outputs": [
        {
          "internalType": "bool",
          "name": "",
          "type": "bool"
        }
      ],
      "stateMutability": "nonpayable",
      "type": "function"
    }
  ],
  "bytecode": "0x608060405269d3c21bcecceda10000006006553480156200001f57600080fd5b506040518060400160405280600c81526020017f46616d696c7920436f696e7300000000000000000000000000000000000000008152506040518060400160405280600381526020017f464373000000000000000000000000000000000000000000000000000000000081525081600390816200009d91906200080c565b508060049081620000af91906200080c565b5050506000600560006101000a81548160ff021916908315150217905550620000ed620000e16200011e60201b60201c565b6200012660201b60201c565b6200011862000101620001ec60201b60201c565b69021e19e0c9bab24000006200021660201b60201c565b62000bd2565b600033905090565b6000600560019054906101000a900473ffffffffffffffffffffffffffffffffffffffff16905081600560016101000a81548173ffffffffffffffffffffffffffffffffffffffff021916908373ffffffffffffffffffffffffffffffffffffffff1602179055508173ffffffffffffffffffffffffffffffffffffffff168173ffffffffffffffffffffffffffffffffffffffff167f8be0079c531659141344cd1fd0a4f28419497f9722a3daafe3b4186f6b6457e060405160405180910390a35050565b6000600560019054906101000a900473ffffffffffffffffffffffffffffffffffffffff16905090565b62000226620002b060201b60201c565b600654816200024a6200023e620001ec60201b60201c565b6200034160201b60201c565b62000256919062000922565b11156200029a576040517f08c379a0000000000000000000000000000000000000000000000000000000008152600401620002919062000a06565b60405180910390fd5b620002ac82826200038960201b60201c565b5050565b620002c06200011e60201b60201c565b73ffffffffffffffffffffffffffffffffffffffff16620002e6620001ec60201b60201c565b73ffffffffffffffffffffffffffffffffffffffff16146200033f576040517f08c379a0000000000000000000000000000000000000000000000000000000008152600401620003369062000a78565b60405180910390fd5b565b60008060008373ffffffffffffffffffffffffffffffffffffffff1673ffffffffffffffffffffffffffffffffffffffff168152602001908152602001600020549050919050565b600073ffffffffffffffffffffffffffffffffffffffff168273ffffffffffffffffffffffffffffffffffffffff1603620003fb576040517f08c379a0000000000000000000000000000000000000000000000000000000008152600401620003f29062000aea565b60405180910390fd5b6200040f600083836200050160201b60201c565b806002600082825462000423919062000922565b92505081905550806000808473ffffffffffffffffffffffffffffffffffffffff1673ffffffffffffffffffffffffffffffffffffffff16815260200190815260200160002060008282546200047a919062000922565b925050819055508173ffffffffffffffffffffffffffffffffffffffff16600073ffffffffffffffffffffffffffffffffffffffff167fddf252ad1be2c89b69c2b068fc378daa952ba7f163c4a11628f55a4df523b3ef83604051620004e1919062000b1d565b60405180910390a3620004fd600083836200057160201b60201c565b5050565b620005198383836200057660201b62000af11760201c565b620005296200057b60201b60201c565b156200056c576040517f08c379a0000000000000000000000000000000000000000000000000000000008152600401620005639062000bb0565b60405180910390fd5b505050565b505050565b505050565b6000600560009054906101000a900460ff16905090565b600081519050919050565b7f4e487b7100000000000000000000000000000000000000000000000000000000600052604160045260246000fd5b7f4e487b7100000000000000000000000000000000000000000000000000000000600052602260045260246000fd5b600060028204905060018216806200061457607f821691505b6020821081036200062a5762000629620005cc565b5b50919050565b60008190508160005260206000209050919050565b60006020601f8301049050919050565b600082821b905092915050565b600060088302620006947fffffffffffffffffffffffffffffffffffffffffffffffffffffffffffffffff8262000655565b620006a0868362000655565b95508019841693508086168417925050509392505050565b6000819050919050565b6000819050919050565b6000620006ed620006e7620006e184620006b8565b620006c2565b620006b8565b9050919050565b6000819050919050565b6200070983620006cc565b620007216200071882620006f4565b84845462000662565b825550505050565b600090565b6200073862000729565b62000745818484620006fe565b505050565b5b818110156200076d57620007616000826200072e565b6001810190506200074b565b5050565b601f821115620007bc57620007868162000630565b620007918462000645565b81016020851015620007a1578190505b620007b9620007b08562000645565b8301826200074a565b50505b505050565b600082821c905092915050565b6000620007e160001984600802620007c1565b1980831691505092915050565b6000620007fc8383620007ce565b9150826002028217905092915050565b620008178262000592565b67ffffffffffffffff8111156200083357620008326200059d565b5b6200083f8254620005fb565b6200084c82828562000771565b600060209050601f8311600181146200088457600084156200086f578287015190505b6200087b8582620007ee565b865550620008eb565b601f198416620008948662000630565b60005b82811015620008be5784890151825560018201915060208501945060208101905062000897565b86831015620008de5784890151620008da601f891682620007ce565b8355505b6001600288020188555050505b505050505050565b7f4e487b7100000000000000000000000000000000000000000000000000000000600052601160045260246000fd5b60006200092f82620006b8565b91506200093c83620006b8565b9250827fffffffffffffffffffffffffffffffffffffffffffffffffffffffffffffffff03821115620009745762000973620008f3565b5b828201905092915050565b600082825260208201905092915050565b7f546869732076616c7565206578636565647320746865206d6178696d756d206e60008201527f756d626572206f6620746f6b656e7320616c6c6f776564000000000000000000602082015250565b6000620009ee6037836200097f565b9150620009fb8262000990565b604082019050919050565b6000602082019050818103600083015262000a2181620009df565b9050919050565b7f4f776e61626c653a2063616c6c6572206973206e6f7420746865206f776e6572600082015250565b600062000a606020836200097f565b915062000a6d8262000a28565b602082019050919050565b6000602082019050818103600083015262000a938162000a51565b9050919050565b7f45524332303a206d696e7420746f20746865207a65726f206164647265737300600082015250565b600062000ad2601f836200097f565b915062000adf8262000a9a565b602082019050919050565b6000602082019050818103600083015262000b058162000ac3565b9050919050565b62000b1781620006b8565b82525050565b600060208201905062000b34600083018462000b0c565b92915050565b7f45524332305061757361626c653a20746f6b656e207472616e7366657220776860008201527f696c652070617573656400000000000000000000000000000000000000000000602082015250565b600062000b98602a836200097f565b915062000ba58262000b3a565b604082019050919050565b6000602082019050818103600083015262000bcb8162000b89565b9050919050565b61210e8062000be26000396000f3fe608060405234801561001057600080fd5b50600436106101425760003560e01c8063715018a6116100b8578063a457c2d71161007c578063a457c2d714610343578063a9059cbb14610373578063c0ee01bc146103a3578063dd62ed3e146103c1578063f2fde38b146103f1578063f3e1e5d71461040d57610142565b8063715018a6146102d75780638456cb59146102e15780638aed8df5146102eb5780638da5cb5b1461030757806395d89b411461032557610142565b8063313ce5671161010a578063313ce5671461021557806339509351146102335780633f4ba83a146102635780635c975abb1461026d5780636039fbdb1461028b57806370a08231146102a757610142565b8063015677391461014757806306fdde0314610179578063095ea7b31461019757806318160ddd146101c757806323b872dd146101e5575b600080fd5b610161600480360381019061015c919061148e565b610429565b604051610170939291906114ef565b60405180910390f35b610181610460565b60405161018e91906115bf565b60405180910390f35b6101b160048036038101906101ac919061160d565b6104f2565b6040516101be919061164d565b60405180910390f35b6101cf610515565b6040516101dc9190611668565b60405180910390f35b6101ff60048036038101906101fa9190611683565b61051f565b60405161020c919061164d565b60405180910390f35b61021d61054e565b60405161022a91906116f2565b60405180910390f35b61024d6004803603810190610248919061160d565b610557565b60405161025a919061164d565b60405180910390f35b61026b61058e565b005b6102756105a0565b604051610282919061164d565b60405180910390f35b6102a560048036038101906102a0919061160d565b6105b7565b005b6102c160048036038101906102bc919061148e565b61062c565b6040516102ce9190611668565b60405180910390f35b6102df610674565b005b6102e9610688565b005b6103056004803603810190610300919061170d565b61069a565b005b61030f6106ac565b60405161031c9190611749565b60405180910390f35b61032d6106d6565b60405161033a91906115bf565b60405180910390f35b61035d6004803603810190610358919061160d565b610768565b60405161036a919061164d565b60405180910390f35b61038d6004803603810190610388919061160d565b6107df565b60405161039a919061164d565b60405180910390f35b6103ab610802565b6040516103b8919061164d565b60405180910390f35b6103db60048036038101906103d69190611764565b610939565b6040516103e89190611668565b60405180910390f35b61040b6004803603810190610406919061148e565b6109c0565b005b610427600480360381019061042291906117d0565b610a43565b005b60076020528060005260406000206000915090508060000154908060010160009054906101000a900460ff16908060020154905083565b60606003805461046f90611852565b80601f016020809104026020016040519081016040528092919081815260200182805461049b90611852565b80156104e85780601f106104bd576101008083540402835291602001916104e8565b820191906000526020600020905b8154815290600101906020018083116104cb57829003601f168201915b5050505050905090565b6000806104fd610af6565b905061050a818585610afe565b600191505092915050565b6000600254905090565b60008061052a610af6565b9050610537858285610cc7565b610542858585610d53565b60019150509392505050565b60006012905090565b600080610562610af6565b90506105838185856105748589610939565b61057e91906118b2565b610afe565b600191505092915050565b610596610fd2565b61059e611050565b565b6000600560009054906101000a900460ff16905090565b6105bf610fd2565b600654816105d36105ce6106ac565b61062c565b6105dd91906118b2565b111561061e576040517f08c379a00000000000000000000000000000000000000000000000000000000081526004016106159061197a565b60405180910390fd5b61062882826110b3565b5050565b60008060008373ffffffffffffffffffffffffffffffffffffffff1673ffffffffffffffffffffffffffffffffffffffff168152602001908152602001600020549050919050565b61067c610fd2565b6106866000611212565b565b610690610fd2565b6106986112d8565b565b6106a2610fd2565b8060068190555050565b6000600560019054906101000a900473ffffffffffffffffffffffffffffffffffffffff16905090565b6060600480546106e590611852565b80601f016020809104026020016040519081016040528092919081815260200182805461071190611852565b801561075e5780601f106107335761010080835404028352916020019161075e565b820191906000526020600020905b81548152906001019060200180831161074157829003601f168201915b5050505050905090565b600080610773610af6565b905060006107818286610939565b9050838110156107c6576040517f08c379a00000000000000000000000000000000000000000000000000000000081526004016107bd90611a0c565b60405180910390fd5b6107d38286868403610afe565b60019250505092915050565b6000806107ea610af6565b90506107f7818585610d53565b600191505092915050565b600062278d00600760003373ffffffffffffffffffffffffffffffffffffffff1673ffffffffffffffffffffffffffffffffffffffff1681526020019081526020016000206002015461085591906118b2565b421015610897576040517f08c379a000000000000000000000000000000000000000000000000000000000815260040161088e90611a9e565b60405180910390fd5b42600760003373ffffffffffffffffffffffffffffffffffffffff1673ffffffffffffffffffffffffffffffffffffffff168152602001908152602001600020600201819055506109326108e96106ac565b33600760003373ffffffffffffffffffffffffffffffffffffffff1673ffffffffffffffffffffffffffffffffffffffff16815260200190815260200160002060000154610d53565b6001905090565b6000600160008473ffffffffffffffffffffffffffffffffffffffff1673ffffffffffffffffffffffffffffffffffffffff16815260200190815260200160002060008373ffffffffffffffffffffffffffffffffffffffff1673ffffffffffffffffffffffffffffffffffffffff16815260200190815260200160002054905092915050565b6109c8610fd2565b600073ffffffffffffffffffffffffffffffffffffffff168173ffffffffffffffffffffffffffffffffffffffff1603610a37576040517f08c379a0000000000000000000000000000000000000000000000000000000008152600401610a2e90611b30565b60405180910390fd5b610a4081611212565b50565b610a4b610fd2565b80600760008573ffffffffffffffffffffffffffffffffffffffff1673ffffffffffffffffffffffffffffffffffffffff1681526020019081526020016000206000018190555081600760008573ffffffffffffffffffffffffffffffffffffffff1673ffffffffffffffffffffffffffffffffffffffff16815260200190815260200160002060010160006101000a81548160ff021916908315150217905550505050565b505050565b600033905090565b600073ffffffffffffffffffffffffffffffffffffffff168373ffffffffffffffffffffffffffffffffffffffff1603610b6d576040517f08c379a0000000000000000000000000000000000000000000000000000000008152600401610b6490611bc2565b60405180910390fd5b600073ffffffffffffffffffffffffffffffffffffffff168273ffffffffffffffffffffffffffffffffffffffff1603610bdc576040517f08c379a0000000000000000000000000000000000000000000000000000000008152600401610bd390611c54565b60405180910390fd5b80600160008573ffffffffffffffffffffffffffffffffffffffff1673ffffffffffffffffffffffffffffffffffffffff16815260200190815260200160002060008473ffffffffffffffffffffffffffffffffffffffff1673ffffffffffffffffffffffffffffffffffffffff168152602001908152602001600020819055508173ffffffffffffffffffffffffffffffffffffffff168373ffffffffffffffffffffffffffffffffffffffff167f8c5be1e5ebec7d5bd14f71427d1e84f3dd0314c0f7b2291e5b200ac8c7c3b92583604051610cba9190611668565b60405180910390a3505050565b6000610cd38484610939565b90507fffffffffffffffffffffffffffffffffffffffffffffffffffffffffffffffff8114610d4d5781811015610d3f576040517f08c379a0000000000000000000000000000000000000000000000000000000008152600401610d3690611cc0565b60405180910390fd5b610d4c8484848403610afe565b5b50505050565b600073ffffffffffffffffffffffffffffffffffffffff168373ffffffffffffffffffffffffffffffffffffffff1603610dc2576040517f08c379a0000000000000000000000000000000000000000000000000000000008152600401610db990611d52565b60405180910390fd5b600073ffffffffffffffffffffffffffffffffffffffff168273ffffffffffffffffffffffffffffffffffffffff1603610e31576040517f08c379a0000000000000000000000000000000000000000000000000000000008152600401610e2890611de4565b60405180910390fd5b610e3c83838361133b565b60008060008573ffffffffffffffffffffffffffffffffffffffff1673ffffffffffffffffffffffffffffffffffffffff16815260200190815260200160002054905081811015610ec2576040517f08c379a0000000000000000000000000000000000000000000000000000000008152600401610eb990611e76565b60405180910390fd5b8181036000808673ffffffffffffffffffffffffffffffffffffffff1673ffffffffffffffffffffffffffffffffffffffff16815260200190815260200160002081905550816000808573ffffffffffffffffffffffffffffffffffffffff1673ffffffffffffffffffffffffffffffffffffffff1681526020019081526020016000206000828254610f5591906118b2565b925050819055508273ffffffffffffffffffffffffffffffffffffffff168473ffffffffffffffffffffffffffffffffffffffff167fddf252ad1be2c89b69c2b068fc378daa952ba7f163c4a11628f55a4df523b3ef84604051610fb99190611668565b60405180910390a3610fcc848484611393565b50505050565b610fda610af6565b73ffffffffffffffffffffffffffffffffffffffff16610ff86106ac565b73ffffffffffffffffffffffffffffffffffffffff161461104e576040517f08c379a000000000000000000000000000000000000000000000000000000000815260040161104590611ee2565b60405180910390fd5b565b611058611398565b6000600560006101000a81548160ff0219169083151502179055507f5db9ee0a495bf2e6ff9c91a7834c1ba4fdd244a5e8aa4e537bd38aeae4b073aa61109c610af6565b6040516110a99190611749565b60405180910390a1565b600073ffffffffffffffffffffffffffffffffffffffff168273ffffffffffffffffffffffffffffffffffffffff1603611122576040517f08c379a000000000000000000000000000000000000000000000000000000000815260040161111990611f4e565b60405180910390fd5b61112e6000838361133b565b806002600082825461114091906118b2565b92505081905550806000808473ffffffffffffffffffffffffffffffffffffffff1673ffffffffffffffffffffffffffffffffffffffff168152602001908152602001600020600082825461119591906118b2565b925050819055508173ffffffffffffffffffffffffffffffffffffffff16600073ffffffffffffffffffffffffffffffffffffffff167fddf252ad1be2c89b69c2b068fc378daa952ba7f163c4a11628f55a4df523b3ef836040516111fa9190611668565b60405180910390a361120e60008383611393565b5050565b6000600560019054906101000a900473ffffffffffffffffffffffffffffffffffffffff16905081600560016101000a81548173ffffffffffffffffffffffffffffffffffffffff021916908373ffffffffffffffffffffffffffffffffffffffff1602179055508173ffffffffffffffffffffffffffffffffffffffff168173ffffffffffffffffffffffffffffffffffffffff167f8be0079c531659141344cd1fd0a4f28419497f9722a3daafe3b4186f6b6457e060405160405180910390a35050565b6112e06113e1565b6001600560006101000a81548160ff0219169083151502179055507f62e78cea01bee320cd4e420270b5ea74000d11b0c9f74754ebdbfc544b05a258611324610af6565b6040516113319190611749565b60405180910390a1565b611346838383610af1565b61134e6105a0565b1561138e576040517f08c379a000000000000000000000000000000000000000000000000000000000815260040161138590611fe0565b60405180910390fd5b505050565b505050565b6113a06105a0565b6113df576040517f08c379a00000000000000000000000000000000000000000000000000000000081526004016113d69061204c565b60405180910390fd5b565b6113e96105a0565b15611429576040517f08c379a0000000000000000000000000000000000000000000000000000000008152600401611420906120b8565b60405180910390fd5b565b600080fd5b600073ffffffffffffffffffffffffffffffffffffffff82169050919050565b600061145b82611430565b9050919050565b61146b81611450565b811461147657600080fd5b50565b60008135905061148881611462565b92915050565b6000602082840312156114a4576114a361142b565b5b60006114b284828501611479565b91505092915050565b6000819050919050565b6114ce816114bb565b82525050565b60008115159050919050565b6114e9816114d4565b82525050565b600060608201905061150460008301866114c5565b61151160208301856114e0565b61151e60408301846114c5565b949350505050565b600081519050919050565b600082825260208201905092915050565b60005b83811015611560578082015181840152602081019050611545565b8381111561156f576000848401525b50505050565b6000601f19601f8301169050919050565b600061159182611526565b61159b8185611531565b93506115ab818560208601611542565b6115b481611575565b840191505092915050565b600060208201905081810360008301526115d98184611586565b905092915050565b6115ea816114bb565b81146115f557600080fd5b50565b600081359050611607816115e1565b92915050565b600080604083850312156116245761162361142b565b5b600061163285828601611479565b9250506020611643858286016115f8565b9150509250929050565b600060208201905061166260008301846114e0565b92915050565b600060208201905061167d60008301846114c5565b92915050565b60008060006060848603121561169c5761169b61142b565b5b60006116aa86828701611479565b93505060206116bb86828701611479565b92505060406116cc868287016115f8565b9150509250925092565b600060ff82169050919050565b6116ec816116d6565b82525050565b600060208201905061170760008301846116e3565b92915050565b6000602082840312156117235761172261142b565b5b6000611731848285016115f8565b91505092915050565b61174381611450565b82525050565b600060208201905061175e600083018461173a565b92915050565b6000806040838503121561177b5761177a61142b565b5b600061178985828601611479565b925050602061179a85828601611479565b9150509250929050565b6117ad816114d4565b81146117b857600080fd5b50565b6000813590506117ca816117a4565b92915050565b6000806000606084860312156117e9576117e861142b565b5b60006117f786828701611479565b9350506020611808868287016117bb565b9250506040611819868287016115f8565b9150509250925092565b7f4e487b7100000000000000000000000000000000000000000000000000000000600052602260045260246000fd5b6000600282049050600182168061186a57607f821691505b60208210810361187d5761187c611823565b5b50919050565b7f4e487b7100000000000000000000000000000000000000000000000000000000600052601160045260246000fd5b60006118bd826114bb565b91506118c8836114bb565b9250827fffffffffffffffffffffffffffffffffffffffffffffffffffffffffffffffff038211156118fd576118fc611883565b5b828201905092915050565b7f546869732076616c7565206578636565647320746865206d6178696d756d206e60008201527f756d626572206f6620746f6b656e7320616c6c6f776564000000000000000000602082015250565b6000611964603783611531565b915061196f82611908565b604082019050919050565b6000602082019050818103600083015261199381611957565b9050919050565b7f45524332303a2064656372656173656420616c6c6f77616e63652062656c6f7760008201527f207a65726f000000000000000000000000000000000000000000000000000000602082015250565b60006119f6602583611531565b9150611a018261199a565b604082019050919050565b60006020820190508181036000830152611a25816119e9565b9050919050565b7f596f752063616e206f6e6c7920776974686472617720796f757220616c6c6f7760008201527f616e6365206f6e63652065766572792033302064617973000000000000000000602082015250565b6000611a88603783611531565b9150611a9382611a2c565b604082019050919050565b60006020820190508181036000830152611ab781611a7b565b9050919050565b7f4f776e61626c653a206e6577206f776e657220697320746865207a65726f206160008201527f6464726573730000000000000000000000000000000000000000000000000000602082015250565b6000611b1a602683611531565b9150611b2582611abe565b604082019050919050565b60006020820190508181036000830152611b4981611b0d565b9050919050565b7f45524332303a20617070726f76652066726f6d20746865207a65726f2061646460008201527f7265737300000000000000000000000000000000000000000000000000000000602082015250565b6000611bac602483611531565b9150611bb782611b50565b604082019050919050565b60006020820190508181036000830152611bdb81611b9f565b9050919050565b7f45524332303a20617070726f766520746f20746865207a65726f20616464726560008201527f7373000000000000000000000000000000000000000000000000000000000000602082015250565b6000611c3e602283611531565b9150611c4982611be2565b604082019050919050565b60006020820190508181036000830152611c6d81611c31565b9050919050565b7f45524332303a20696e73756666696369656e7420616c6c6f77616e6365000000600082015250565b6000611caa601d83611531565b9150611cb582611c74565b602082019050919050565b60006020820190508181036000830152611cd981611c9d565b9050919050565b7f45524332303a207472616e736665722066726f6d20746865207a65726f20616460008201527f6472657373000000000000000000000000000000000000000000000000000000602082015250565b6000611d3c602583611531565b9150611d4782611ce0565b604082019050919050565b60006020820190508181036000830152611d6b81611d2f565b9050919050565b7f45524332303a207472616e7366657220746f20746865207a65726f206164647260008201527f6573730000000000000000000000000000000000000000000000000000000000602082015250565b6000611dce602383611531565b9150611dd982611d72565b604082019050919050565b60006020820190508181036000830152611dfd81611dc1565b9050919050565b7f45524332303a207472616e7366657220616d6f756e742065786365656473206260008201527f616c616e63650000000000000000000000000000000000000000000000000000602082015250565b6000611e60602683611531565b9150611e6b82611e04565b604082019050919050565b60006020820190508181036000830152611e8f81611e53565b9050919050565b7f4f776e61626c653a2063616c6c6572206973206e6f7420746865206f776e6572600082015250565b6000611ecc602083611531565b9150611ed782611e96565b602082019050919050565b60006020820190508181036000830152611efb81611ebf565b9050919050565b7f45524332303a206d696e7420746f20746865207a65726f206164647265737300600082015250565b6000611f38601f83611531565b9150611f4382611f02565b602082019050919050565b60006020820190508181036000830152611f6781611f2b565b9050919050565b7f45524332305061757361626c653a20746f6b656e207472616e7366657220776860008201527f696c652070617573656400000000000000000000000000000000000000000000602082015250565b6000611fca602a83611531565b9150611fd582611f6e565b604082019050919050565b60006020820190508181036000830152611ff981611fbd565b9050919050565b7f5061757361626c653a206e6f7420706175736564000000000000000000000000600082015250565b6000612036601483611531565b915061204182612000565b602082019050919050565b6000602082019050818103600083015261206581612029565b9050919050565b7f5061757361626c653a2070617573656400000000000000000000000000000000600082015250565b60006120a2601083611531565b91506120ad8261206c565b602082019050919050565b600060208201905081810360008301526120d181612095565b905091905056fea264697066735822122098b34f88bf616c1f1a441a3ddb540a6b99d5dee74d97f8d690a9cf126cc95d7564736f6c634300080f0033",
  "immutableReferences": {},
  "source": "// SPDX-License-Identifier: GPL-3.0\r\npragma solidity ^0.8.15;\r\n\r\nimport \"../node_modules/@openzeppelin/contracts/token/ERC20/extensions/ERC20Pausable.sol\";\r\nimport \"../node_modules/@openzeppelin/contracts/access/Ownable.sol\";\r\n\r\n//RNF01 - Os contratos devem seguir o padro do ERC20Pausable\r\ncontract SharedWalletContract is ERC20Pausable, Ownable {\r\n    struct beneficiaryInfo {\r\n        uint256 valueAllowed;\r\n        bool isAllowed;\r\n        uint256 lastDateWithdrawAllowance;\r\n    }\r\n    uint256 maxTokenAllowed = 1000000000000000000000000;\r\n    mapping(address => beneficiaryInfo) public beneficiaries;\r\n\r\n    //TASK 01 - Deve ser utilizado o modelo de tokens ERC20\r\n    constructor() ERC20(\"Family Coins\", \"FCs\") {\r\n        /** @dev Dono dos tokens, geralmente  o endereo que executou o contrato, mais a quantidade de tokens que teremos em nossa moeda LBCs\r\n         * A quantidade de tokens  10000, como precisamos converter wei para ether, multiplicamos a quantidade com 10 elevado a 18\r\n         */\r\n\r\n        addTokens(owner(), 10000 * 10**18);\r\n    }\r\n\r\n    /*\r\n        RF01 - Deve ser possvel o cadastro dos endereos a serem beneficiados pela mesada. (Somente o admin poder realizar essa ao)\r\n        RF02 - Deve ser possvel desabilitar o acesso de um beneficirio. (Somente o admin poder realizar essa ao)\r\n        RF03 - Deve ser possvel estipular o valor que cada beneficirio poder retirar. (Somente o admin poder realizar essa ao) \r\n    */\r\n    function setBeneficiary(\r\n        address _beneficiary,\r\n        bool _isAllowed,\r\n        uint256 _amountAllowed\r\n    ) public onlyOwner {\r\n        beneficiaries[_beneficiary].valueAllowed = _amountAllowed;\r\n        beneficiaries[_beneficiary].isAllowed = _isAllowed;\r\n    }\r\n\r\n    //RF05 - Deve ser possvel estipular o mximo de moedas que o nosso contrato pode ter. (Somente o admin poder realizar essa ao)\r\n    function setMaxTokensAllowed(uint256 _maxTokenAllowed) public onlyOwner {\r\n        maxTokenAllowed = _maxTokenAllowed;\r\n    }\r\n\r\n    //RF04 - Deve ser possvel adicionar moedas ao contrato. (Apenas administradores)\r\n    function addTokens(address account, uint256 amount) public onlyOwner {\r\n        require(\r\n            balanceOf(owner()) + amount <= maxTokenAllowed,\r\n            \"This value exceeds the maximum number of tokens allowed\"\r\n        );\r\n\r\n        _mint(account, amount);\r\n    }\r\n\r\n    //RF06 - Deve ser possvel pausar todas as transferncias.  (Somente o admin poder realizar essa ao)\r\n    function pause() public onlyOwner {\r\n        _pause();\r\n    }\r\n\r\n    //RF06 - Deve ser possvel pausar todas as transferncias.  (Somente o admin poder realizar essa ao)\r\n    function unpause() public onlyOwner {\r\n        _unpause();\r\n    }\r\n\r\n    /**\r\n     * @dev See {IERC20-transfer}.\r\n     *\r\n     * Requirements:\r\n     *\r\n     * - `to` cannot be the zero address.\r\n     * - the caller must have a balance of at least `amount`.\r\n     */\r\n    //RF07 - Deve ser possvel a retirada de moedas pelos beneficiados. (Apenas uma vez ao ms)\r\n    function withdrawAllowance() public returns (bool) {\r\n        require(\r\n            block.timestamp >=\r\n                (beneficiaries[msg.sender].lastDateWithdrawAllowance + 30 days),\r\n            \"You can only withdraw your allowance once every 30 days\"\r\n        );\r\n\r\n        beneficiaries[msg.sender].lastDateWithdrawAllowance = block.timestamp;\r\n\r\n        _transfer(owner(), msg.sender, beneficiaries[msg.sender].valueAllowed);\r\n        return true;\r\n    }\r\n}\r\n",
  "sourcePath": "C:\\Users\\manoe\\OneDrive\\rea de Trabalho\\Projetos\\Carteira Compartilhada\\shared_wallet_truffle\\contracts\\SharedWalletContract.sol",
  "compiler": {
    "name": "solc",
    "version": "0.8.15+commit.e14f2714.Emscripten.clang"
  },
  "schemaVersion": "3.4.8",
  "updatedAt": "2022-09-02T16:29:35.660Z",
  "devdoc": {
    "kind": "dev",
    "methods": {
      "allowance(address,address)": {
        "details": "See {IERC20-allowance}."
      },
      "approve(address,uint256)": {
        "details": "See {IERC20-approve}. NOTE: If `amount` is the maximum `uint256`, the allowance is not updated on `transferFrom`. This is semantically equivalent to an infinite approval. Requirements: - `spender` cannot be the zero address."
      },
      "balanceOf(address)": {
        "details": "See {IERC20-balanceOf}."
      },
      "decimals()": {
        "details": "Returns the number of decimals used to get its user representation. For example, if `decimals` equals `2`, a balance of `505` tokens should be displayed to a user as `5.05` (`505 / 10 ** 2`). Tokens usually opt for a value of 18, imitating the relationship between Ether and Wei. This is the value {ERC20} uses, unless this function is overridden; NOTE: This information is only used for _display_ purposes: it in no way affects any of the arithmetic of the contract, including {IERC20-balanceOf} and {IERC20-transfer}."
      },
      "decreaseAllowance(address,uint256)": {
        "details": "Atomically decreases the allowance granted to `spender` by the caller. This is an alternative to {approve} that can be used as a mitigation for problems described in {IERC20-approve}. Emits an {Approval} event indicating the updated allowance. Requirements: - `spender` cannot be the zero address. - `spender` must have allowance for the caller of at least `subtractedValue`."
      },
      "increaseAllowance(address,uint256)": {
        "details": "Atomically increases the allowance granted to `spender` by the caller. This is an alternative to {approve} that can be used as a mitigation for problems described in {IERC20-approve}. Emits an {Approval} event indicating the updated allowance. Requirements: - `spender` cannot be the zero address."
      },
      "name()": {
        "details": "Returns the name of the token."
      },
      "owner()": {
        "details": "Returns the address of the current owner."
      },
      "paused()": {
        "details": "Returns true if the contract is paused, and false otherwise."
      },
      "renounceOwnership()": {
        "details": "Leaves the contract without owner. It will not be possible to call `onlyOwner` functions anymore. Can only be called by the current owner. NOTE: Renouncing ownership will leave the contract without an owner, thereby removing any functionality that is only available to the owner."
      },
      "symbol()": {
        "details": "Returns the symbol of the token, usually a shorter version of the name."
      },
      "totalSupply()": {
        "details": "See {IERC20-totalSupply}."
      },
      "transfer(address,uint256)": {
        "details": "See {IERC20-transfer}. Requirements: - `to` cannot be the zero address. - the caller must have a balance of at least `amount`."
      },
      "transferFrom(address,address,uint256)": {
        "details": "See {IERC20-transferFrom}. Emits an {Approval} event indicating the updated allowance. This is not required by the EIP. See the note at the beginning of {ERC20}. NOTE: Does not update the allowance if the current allowance is the maximum `uint256`. Requirements: - `from` and `to` cannot be the zero address. - `from` must have a balance of at least `amount`. - the caller must have allowance for ``from``'s tokens of at least `amount`."
      },
      "transferOwnership(address)": {
        "details": "Transfers ownership of the contract to a new account (`newOwner`). Can only be called by the current owner."
      },
      "withdrawAllowance()": {
        "details": "See {IERC20-transfer}. Requirements: - `to` cannot be the zero address. - the caller must have a balance of at least `amount`."
      }
    },
    "version": 1
  },
  "userdoc": {
    "kind": "user",
    "methods": {},
    "version": 1
  }
}